:100000000200E1021E46FFFFFFFFFFFFFFFFFFFFB1
:10001000FFFFFFFFFFFFFFFFFFFFFFFFFFFFFFFFF0
:10002000FFFFFFFFFFFFFFFFFFFFFFFFFFFFFFFFE0
:10003000FFFFFF022799FFFFFFFFFFFFFFFFFFFF0B
:10004000FFFFFF02271CFFFFFFFFFF021AAEFFFFAB
:10005000FFFFFF021EA7FFFFFFFFFFFFFFFFFFFFE6
:10006000FFFFFFFFFFFFFFFFFFFFFFFFFFFFFFFFA0
:10007000FFFFFFFFFFFFFFFFFFFFFFFFFFFFFFFF90
:10008000FFFFFF021CF300000080FB1200F0B9002C
:10009000030200DBE47921785CB800028004F709F0
:1000A000D8FCE490012178AF79028002F0A3D8FC5B
:1000B000D9FA9002CFAA82AB839000F3781379012A
:1000C0008015E493A3AC82AD838A828B83F0A3AACC
:1000D00082AB838C828D83D8E9D9E712208B120002
:1000E0008675D0007581BF75102175110102008BD6
:1000F0007901224A37DF37DF37DF37DF37E3374031
:100100000504004025A2E792D65002F40430F70619
:1001100063F0FF05F0B3400384800384F40430D619
:100120000563F0FF05F022E76670100809E76670C6
:100130000A0809E76670040809E76622BB0102E7BE
:1001400022C082C08389828A83BB0003E08002E4EC
:1001500093D083D08222BB000EC082C0838A838961
:1001600082F0D083D08222BB0101F72260160808FA
:1001700008C6C313C618C613C618C613C618C613B6
:10018000C6D5E0EA22700908080822601618181877
:10019000C6C333C608C633C608C633C608C633C688
:1001A000D5E0EA22E627F60809E637F60809E63739
:1001B000F60809E637F622E026F608A3E036F60848
:1001C000A3E036F608A3E036F622E647F60809E68D
:1001D00047F60809E647F60809E647F622C9C0E0EF
:1001E000E7F60809E7F60809E7F60809E7F6D0E0B8
:1001F000F922C3E498F8E499F91202338026C3E4A3
:100200009AFAE49BFBE920E7E9120233E498F8E468
:1002100099F922C3E498F8E499F9120233E498F8C2
:10022000E499F9C3E49AFAE49BFB22EB20E7CFE9D7
:1002300020E7E0B90010BB0008E88AF084F8AAF0D3
:1002400022E4FBC8FA22EB70227B10C833C8C93302
:10025000C9335007C39AC3DBF280069A50012ADBE8
:10026000EAC833F4C8C933F4C9FA2275F008E4C8FF
:1002700033C8C933C933C99AC99B5004C92AC93B79
:10028000D5F0ECFBC833F4C8E4C9FA22600C08C608
:10029000C313C618C613C6D5E0F422700422600D3D
:1002A00018C6C333C608C633C6D5E0F418222510D5
:1002B00010AF08F510400215118008F51040021526
:1002C00011D2AF22C0D0251010AF08F51050020592
:1002D000118008F51050020511D2AFD0D022E4737E
:1002E0002510C582C0E0E51134FFC583C0E0E510EC
:1002F000C3958224F910AF08858311858210800888
:10030000858311858210D2AFCEF0A3E520F0A378CB
:1003100008E608F0A3DEFAEFF0A3E58124FBF8E697
:1003200008F0A3E608F0A30808E608F0A3E608F042
:10033000A315811581D0E0FED0E0F815811581E884
:10034000C0E0EEC0E022851183851082E0A3FEE0CC
:10035000A3F5207808E0A3F608DFFAE0A3FFE0A306
:10036000C0E0E0A3C0E0E0A3C0E0E0A3C0E010AFC5
:10037000088582108583118008858210858311D2BB
:10038000AFD083D08222033F0000030004280D98E1
:10039000089007900194011B0195111B08F0093981
:1003A000821F0EA4FECD82210622FB3818181621CA
:1003B00018F0EF3818F2ED3828F2EB3868F003390E
:1003C0002A1FE73F08F00428C33868F0393C08F1D9
:1003D000053C88F1173CA8F10E3CE09F2C1F01283A
:1003E000104A291FD63F15D0033827D0093800906E
:1003F0000428A83F0128154101980128014A25D069
:100400001F38041F831F0EA4FECD042205381421BB
:10041000202807A0083F0628711527D0E939202891
:1004200007D0F238832178F10238042188F1083DA1
:100430000628A14001F004288D38042807A00528CB
:10044000561528F1163C68F1143D77CF12405992A9
:1004500002D80F3912D00739699222D00439799223
:1004600042D004380528F8151E3FC09F0428753F68
:1004700008F1233C88F1203D094028F1103D45401A
:10048000F7C759F2083D9303131183E1B9F00F3C0C
:1004900023E00D3F09D8EA38F9C30B3F68F1033D6B
:1004A00059F2F23C09D8F9390528C6150528F9157D
:1004B00001900128214A051F48F00C3C08F10A3838
:1004C00068F1033C98F106390C96062802150228BB
:1004D000843F47A00C960528FC15531F0528EC15F2
:1004E00007288CED0528F51501280195711B0128B9
:1004F0000CE40528EE15511F88F10B3808F1073878
:1005000068F109390128214201F00B3947D0093837
:100510003521063F28F1033838F10339351F341FE0
:1005200004280CE047D0033903280CE80528D1152E
:10053000571F28F00638561F811F021F38F0063952
:1005400030215B9005284415FD3F88F1033D0528C7
:10055000001505288A1547D0133808F10F392C47A4
:100560000CF00C38C403B4125C110C3E04F00A38D1
:10057000C103802801A0411B063F3021043F07280A
:100580004CED4C1B5B9047D0173827D00328F1392E
:100590000EA4FECD02220D390022083810210029B8
:1005A00014E00328E63C4C1BF13F0528A715EE3F5D
:1005B00046181221033F05280B1588F1303905280C
:1005C0001A150128FB41302100291BE00A3D0428AF
:1005D000FF1505281015F6C35192166A3B906B085B
:1005E0000428F615052807150BF0FB3917D0043839
:1005F0002D1F0128C43F0328214701F00839032893
:10060000314701F00439A2958090033FC2950092D2
:100610000328BF15201B54900128B33F08F105396A
:10062000052111900128214A38F103390021023FA8
:10063000302110216A030428CB156B03314122417C
:1006400028F1093D02F00239F29101F00B39FF283F
:10065000F191083F02F00239529201F00339FF286C
:10066000F193F7CB1B06023907A4B20C073D47D024
:1006700003287738249003287E3F1690B608042874
:10068000BA15A6030428B7153BE0F7CE28F1703C55
:10069000012807A0F090A00668F1323D149030F0D8
:1006A000053938F103286738073F50F003286339CC
:1006B00058F10328603838F104380328B415033F93
:1006C0000328921503287E15012807D0033907A1B6
:1006D000563F424130F00C3907A112D0033807D8F9
:1006E0004E3887A0C14041D04A38F7CE483F38F154
:1006F000033822D0443807D8423907A1403F78F167
:10070000123847D02D3800F0033860F00639C14068
:1007100011D0073887A0113F10F0033820F0AB3913
:1007200077CF0B3F00F0033810F0A539414181D05D
:10073000043903285915093F0328751568F105394F
:10074000414141D0023907B810F0063903283A1563
:10075000012807D0033807D8123907A1103F40F00D
:100760000328053903281D1507D8F838083FA103C9
:1007700083403112310511D0023907A14BF0063CFC
:100780000428261504283715FA3F042821151BF0E4
:10079000FD3D38F103380328AA15F7CD032821477A
:1007A00001F005390328314701F0033807A2F7CEDD
:1007B000224082D00A38060304281D1506937606C7
:1007C000261196040428171571034112002871C0E0
:1007D00021070438E7CF4198043F17D004395198D6
:1007E0000728214817D00538F295202800901D3F92
:1007F00007D20438C2950092183F07D10438D29529
:100800000094133F07D40438E29500980E3F80907F
:1008100028F10A3D3190A10631F0063903A4B295C2
:100820000228B31500A1A2950228AF15201B28F1BC
:10083000633D08F10A39012807D0073907285141DB
:100840001128C14A012807A017D20539E3CF8AD061
:10085000023813A007D20539B3CF4AD0023843A0DB
:1008600083D01E3931031112310521D00739319956
:1008700007282148002915E0133F529502288515C5
:10088000454003D10D39429502287F15281F219933
:100890000728214803D2043862950228761573CFC1
:1008A000834808F1093977CF17D0063907D20339C1
:1008B0000AD1023887A0349007D2073807D8033806
:1008C0003090543F07A8023FF7C718F15A3927D094
:1008D0004C39314011D0493987D0073917D04539C3
:1008E00007D203390AD1413805F04B39414001F0B4
:1008F000483850903B3F68F1153878F139381490FA
:1009000017D03D3907D23D3987D003383490393F6D
:1009100007D1373911900128214A409003287715D3
:10092000253F47D01C38249007D30C39119001285B
:10093000214A87D008385144002911E0043A514C2B
:10094000023877CF17D01B3987D003383490193F3E
:1009500007D31739C14021D01438073F17D00F39BA
:1009600007D303383090023F009044900A3F249010
:1009700017D0053907D305393490033FA09F449021
:100980000221C190511B8121342124F0083927D044
:1009900004390C9CFD2BAE3F10904490B7CF34F03F
:1009A0000E3953210328E195711B541F0F28CC9554
:1009B00006282141F1C081111C09143F0190511BEF
:1009C0000728F19F711B802114F001288F3854F003
:1009D000FD2B0A380128B63F541F03286D15102837
:1009E000CCED0328761576217821501F0128A29A94
:1009F000217001B2218001B221802CE30328691506
:100A000074210128ACE408F1073C88F1033D022879
:100A1000A01503282A15011F0128349D0328591504
:100A2000201F002168F0093D069058F0033907287F
:100A3000364102289C15FA3F0728504078F10439C6
:100A4000331F321F0421500000DC0128853828F1B3
:100A5000103D8340F7CB31031112310521D003390A
:100A600003D1033900D8103807A41B901A90163F01
:100A700000D80128713998F107394B700128E241FB
:100A80002B0800288E3F102807A04B701BF0FC2B72
:100A9000ED3C4A70224128F1303D02F00239F291DA
:100AA00012E0B20CFC2BE23C419031061111FF2BFD
:100AB000E29F3204520022111A042A043240002814
:100AC00062C018F1033927D00D3922F009390728FF
:100AD0000141B109002921E0093A0AA1073F42F08A
:100AE0000339FACE033F62F0F93818F1253977CF90
:100AF0000AD1223887A0203F02F00239529212E038
:100B0000B20CFC2BB33C68F1123D38F1153887D09C
:100B100013390128314201F00F38402807A0072877
:100B2000914231C0C1A00728914A063F0228019096
:100B3000710621121A04FF2BF29FB2084BE0A603A4
:100B40000228151526030228121568F1293CFBF02E
:100B5000273C6290467002280A15D2370428609616
:100B600062904670062D02280215C23778F11839B6
:100B7000D04000D81538DBF0133C82904670012835
:100B8000F615D237764400D40338060E023F060D20
:100B900041700128EC15417086120128E815329049
:100BA000B20C053D46700128E215FB3F08F10639FD
:100BB00041721128C14A012807A0EF28F7CF28F178
:100BC0001E3D83403090A00631031112310521D023
:100BD00003398295043F30F0043972950028D51509
:100BE00053C843D0023823A007D4023803A130F001
:100BF000023903A2834892950028C71506900BF08E
:100C000005380128B415591FFB3F0EA4FECD012263
:100C1000043902287315FA3F551F1121031F249030
:100C200008F10F390AD1033987D02438314011D067
:100C3000213905F02139414001F01E3850901B3F09
:100C400048F1073828F1033858F1063987D01438AD
:100C500077CF1490113F78F1053911900128214A7E
:100C6000093F98F10939829500289315281F54905F
:100C7000033F009044900EA4FECD032204390228C5
:100C80003D15FA3F13212C1801210321741FD19027
:100C90000000F13724F0093800000190511B0728AB
:100CA000F19F711B8021063F4190511B0328E19564
:100CB000711B32210728914231C00728914ABF2871
:100CC000F7CF28F1063C88F1043D92955E15281F68
:100CD00044F0383814F00A3854F0FB2B85380128DA
:100CE0000CE40128F615FB2BF93F01289015009024
:100CF00027D0283902D8083838F124393290012811
:100D00009215E237193F19E089F2043C38F11A399B
:100D1000599238F1033901288615124091030029B0
:100D200051E2120E12D0F038012886150128B915AB
:100D30001240012891153199072821482C18FE2BC3
:100D40004C3F0128104A0028A915FB2B223FF09F99
:100D5000043FD09F023FB09F0028D0152C1FF23FC8
:100D600028F1053C68F1033D1490053F2090023FB7
:100D70001090449041980728214838F1FE2B013803
:100D80000028B515FD2BFD3F217011E021800200E8
:100D90000128214107282148217811E021880200FB
:100DA000F7C7761571033112A10501D4023907A8DE
:100DB0000428649631150238F7C70428C4F6FB3CB2
:100DC0000200FE28F7CF641551417111A10501D829
:100DD0000339012807A064911F150338FE28F7CFB7
:100DE000C4F1FB3C0200F7C753155141022807A08C
:100DF0000AD40339FD28F7CF5111A10501D40239D6
:100E000007A8C4910428659607150238F7C756311C
:100E100024F2FB3C02000028DB150028EC15412DD4
:100E2000160C0200F7C73415D032D332234268F1D2
:100E300009394141904041D0043850000306023F37
:100E400003033142022807A00AD404395100FD28C7
:100E5000F7CF13064492042865960028B915002898
:100E6000CA155631FF28E19F4070060C0238130660
:100E70008EA0810064E044F5F83C0029F4E2A4F27D
:100E8000ED3C03F0023807A8D32FD02F02009BF0CF
:100E9000023C020007A12DE0020098F10938102859
:100EA00007D0033908F1043831990728214808F19F
:100EB0000C39012807D00938072851411128C042B0
:100EC000010C0338072850491190082807D005382D
:100ED0000628B148F728F7CF042807D00538062898
:100EE000A148FB28F7CF3021291F0200311FFF281E
:100EF000F19F411B301F31210200022101210321FA
:100F0000532309380628D14001D1123841980728C7
:100F100021480B3F54230C385021F1910000F13748
:100F2000741FF1900000F13768F0023C2B1F019014
:100F3000511B81210728F19F711B802107289142B5
:100F400031C00728914ABF28F7CF3221342102004F
:100F5000082807D007390628B14001F004380828CE
:100F600007A0020004280D98FE2BF43F402807D06C
:100F70000D390EA4FECD012204390028BF15FA3F19
:100F8000661B112100291BE002000728A64A0EA4B7
:100F9000FECD012204390028B115FA3F0128314263
:100FA000B10941E0053A08384BF00C38EA3D072812
:100FB000A142611BE73F0728914271CF0728914A60
:100FC000F73F0728914281A20728914ADA3F0EA4F1
:100FD000FECD0222043900289115FA3F461812214D
:100FE00000291BE01BF00639581F0628E0400128A5
:100FF000004A020017D00A393122063817A041985A
:1010000007282148033F0728A6480200124038F16C
:10101000093802D807399103002941E2120E120D56
:101020001248020047A07B280C9C10215215FF2B70
:101030005E15B7CF020059F203396391083F69F298
:101040000339E392043F79F20339439602000428FE
:101050000D98FA2B0B3F02D407389103002901E2C7
:10106000117006286148020088F10A3C01283141CC
:101070000728814AB1460328314FA1460F3F072870
:10108000894A28F1063D31440328314F5140053F3C
:10109000552851950328314F81110328214F020013
:1010A000E3F3033CF190033F23E051920628614AA9
:1010B0000628434802007B21772141900000F13748
:1010C000702175217A218CEE0415521F801F0200B9
:1010D0004C1B001F47D0033827D009390EA4FECD82
:1010E000002203390B15F73F1021020004280D9848
:1010F00038F1FE2B2738FE2B3C3FD2320218011963
:10110000210601D41A381218162162F003392A1F59
:101110002D3F12F2153822F22838FE2BEF1568F019
:10112000063C61900128114AFE2BB8153021280396
:1011300004280D98F92B2E3F01D1143814212028B2
:1011400007D00D3878F1123904231038714401F0BA
:1011500002398144002911E0714C083F202807A082
:10116000053F01D20538152127A0D22F020011D04A
:101170000638102104280D98FD2BF33FF2CE5200C3
:10118000121BF43F74F71202E08A828B83ECFEEDAF
:10119000FFE565146009147003021228021379E058
:1011A000540F64056003021379900132E0606F9080
:1011B0000133E0F88E828F83E06860030213799038
:1011C0000134E0F88E828F83A3E068600302137914
:1011D000900135E0F88E828F83A3A3E0686003025C
:1011E0001379900136E0F88E828F83A3A3A3E06881
:1011F0006003021379900137E0F88E828F83A3A3F6
:10120000A3A3E0686003021379900138E0F88E82AE
:101210008F83A3A3A3A3A3E0686003021379EEFA6C
:10122000EFFB1216B0021379E55A60378555088531
:101230005609C2B975E40075E20075E40C75DA4030
:1012400075DB9C7404780812028CE50804F557F5E8
:101250005875AF00C2C175E544D2B943E402755A6E
:1012600000800675E200855758121968E05403643F
:101270000360030213798E828F83E0600F14700382
:10128000021317147003021373021379A3A882A91F
:1012900083E090012CF088828983A3E0FC88828916
:1012A00083A3A3E0FBEC90012DF0A3EBF0888289EF
:1012B00083A3A3A3E0FC88828983A3A3A3A3E0FB69
:1012C000EC90012AF0A3EBF088828983A3A3A3A367
:1012D000A3A3A3E0FC88828983A3A3A3A3A3A3A3BE
:1012E000A3E0FBEC90012FF0A3EBF088828983A3AD
:1012F000A3A3A3A3A3A3A3A3E0FA88828983A3A3A0
:10130000A3A3A3A3A3A3A3A3E0F9EA900128F0A3B6
:10131000E9F07559018062A3A882A983E0900123B6
:10132000F088828983A3E0900124F088828983A3D6
:10133000A3E0900125F088828983A3A3A3E0900114
:1013400026F088828983A3A3A3A3E0900127F088D5
:10135000828983A3A3A3A3A3E0FA88828983A3A39A
:10136000A3A3A3A3E0F9EA900121F0A3E9F0754D4E
:1013700001800675650375E400022695C082C0836E
:1013800075E10175E1F19061947420F0A374D6F0D9
:10139000A374BEF0A37489F0A3748EF0E9900131B8
:1013A000F08969C3940B50079061A67425801EE9EB
:1013B000C39412500D9061A67425F0E9C333241C28
:1013C0008011E9C3942550109061A6740FF0E9C311
:1013D00033241A9061848034742569700D9061A65D
:1013E0007425F090618474188022742669700D90C1
:1013F00061A67425F0906184743080107427697040
:101400000C9061A6740FF09061847464F090605F3A
:10141000E4F090605104F0A37485F0744049A3F0A7
:10142000A3E4F0A37455F0A3F0A3F090605AE4F0A5
:10143000A3F0A3F0A3F0756501F55B53A1DF53A7FB
:10144000DF75E118021C0774F11202E074FC12024D
:10145000AE74026565600302169A855008855109CD
:101460007403780812029B851082851183E508F0C9
:10147000A3E509F0A3E4F0A3F075C300E5A2E5A39A
:10148000E5A6F50CE5A5F508E4F50DF50EF50F74E8
:1014900008780C120185F509F50AF50B780C790826
:1014A0001201CA7408780C120185E5A4F508780CBD
:1014B00079081201CA7861740C1201DD75E10175B9
:1014C000E1F1784EE62401F608E63400F6E54D60D9
:1014D00018900121E0654E7004A3E0654F700A7A10
:1014E000237B01121A57754D00E559700302158DC3
:1014F000900128E0654E7004A3E0654F600302157B
:101500008D90012AE0F550A3E0F55190012CE0F513
:101510005290012DE0F553A3E0F55490012FE0F532
:1015200055A3E0F556755900755A01855008855147
:1015300009C2B975E40075E20075E40C75DA40750E
:10154000DB9C7404780812028CE50804F557F55802
:1015500075AF00C2C175E544D2B943E402E5522437
:1015600001FAE43400FB7853E62AF50808E63BF577
:10157000097403780812029B851082851183E5089F
:10158000F0A3E509F0A3E4F0A3F0755C01E521FA0E
:10159000E522F8EA28F8E43400F97A257B00120203
:1015A0002BEAF98921131313541FFA7508017509E1
:1015B0000033333354F8F8E998780812029B742406
:1015C0002AF8E655086003E9800CE523F5F0E98484
:1015D000E5F02429F8E6FE8E69EEC3940B500790DF
:1015E00061A67425801EEEC39412500D9061A674FE
:1015F00025F0EEC333241C8011EEC39425501090C7
:1016000061A6740FF0EEC333241A906184803474A1
:10161000256E700D9061A67425F090618474188019
:101620002274266E700D9061A67425F0906184740A
:1016300030801074276E700C9061A6740FF090616A
:10164000847464F074404E906053F085108285116C
:1016500083785D1201B7855D0C855E0D855F0E8513
:10166000600F75C340E50C24FEF5A4850D09E5095E
:1016700034FFF5A57508FE7509FF750AFF750BFFA8
:10168000780C79081201A47410780C12016CE50C26
:10169000F5A6755B0175E118800E74036565700829
:1016A000900131E0F912137C74041202C4021A5240
:1016B00074F11202E0EAFEEBFF75E10175E1F175EC
:1016C000C300E5A2E5A3E5A6F508E5A5F50CE4F55C
:1016D00009F50AF50B74087808120185F50DF50E69
:1016E000F50F7808790C1201CA7408780812018580
:1016F000E5A4F50C7808790C1201CA786174081217
:1017000001DD754D00755900755A01EE240CF58206
:10171000EF3400F583E0906195F0EE240DF582EF53
:101720003400F583E0906196F0EE240EF582EF34FC
:1017300000F583E0906197F0EE240FF582EF34001E
:10174000F583E0906198F0906054E4F0EE2410F599
:1017500082EF3400F583E0906055F0EE2411F582BD
:10176000EF3400F583E0906056F0EE2412F582EF3E
:101770003400F583E0906057F0EE2413F582EF34E7
:1017800000F583E0F552EE2414F582EF3400F58382
:10179000E0FAEE2415F582EF3400F583E0F9EAF87B
:1017A00088538954EE2416F582EF3400F583E0F86F
:1017B000790088508951EE2417F582EF3400F583C3
:1017C000E0FB7850E446F608EB46F6EE241AF58284
:1017D000EF3400F583E0FAEE241BF582EF3400F5D8
:1017E00083E0F9EAF888558956EE241CFAEF3400B4
:1017F000FB121A57EE2421F582EF3400F583E054F2
:101800001FF522E52275F02584A9F08921E913133B
:1018100013541FFA75080175090033333354F8F86F
:10182000E998780812029B74242AF8E655086003A8
:10183000E9800CE523F5F0E984E5F02429F8E6FADF
:101840008A69EAC3940B50079061A67425801EEA4A
:10185000C39412500D9061A67425F0EAC333241C82
:101860008011EAC3942550109061A6740FF0EAC36A
:1018700033241A906184803474256A700D9061A6B7
:101880007425F09061847418802274266A700D901B
:1018900061A67425F09061847430801074276A709A
:1018A0000C9061A6740FF09061847464F074404AE7
:1018B000906053F0754E00754F0079537850E627CD
:1018C000FC0809E637FDEC2401F508ED3400F509C4
:1018D0007403780812029BF50A7461F97808120102
:1018E000A4785D74081201DD855D0C855E0D855F51
:1018F0000E85600F75C340E50C24FEF5A4E50934A0
:10190000FFF5A57508FE7509FF750AFF750BFF78D1
:101910000C79081201A47410780C12016CE50CF516
:10192000A6755C01755B01855008855109C2B975C2
:10193000E40075E20075E40C75DA4075DB9C740414
:10194000780812028CE50804F557F55875AF00C207
:10195000C175E544D2B943E40253A1DF43A7207522
:10196000650275E118021A5274F11202E0E55B702B
:1019700003021A52856108856209AC08AD0975C376
:1019800011E5A6F508E5A5F50CE4F509F50AF50B52
:1019900074087808120185F50DF50EF50F780879B1
:1019A0000C1201CA74087808120185E5A4F50C78B8
:1019B00008790C1201CA85090DAA0CAB0D85500CD3
:1019C00085510D7403780C12029B7808790C120172
:1019D000A4755B00ED5480600EEC2400ED3480FDB6
:1019E000EA2400EB3480FB7401655C7005755C00D3
:1019F0008018EC2404F8ED3400F9C3E89AE99B4020
:101A000051785D7908120127604885085D85095E77
:101A1000850A5F850B60855D0C855E0D855F0E8593
:101A2000600F75C340E50824FEF5A4E50934FFF511
:101A3000A57508FE7509FF750AFF750BFF780C790F
:101A4000081201A47410780C12016C850C08E508CA
:101A5000F5A67F08020346C082C0837C008C238ADF
:101A6000828B83E0F524A3E0F5258A828B83A3A3F0
:101A7000E0F5268A828B83A3A3A3E0F5278A828BD5
:101A800083A3A3A3A3E0F5287824E6FB7A08EBA2BE
:101A9000E0500974292523F9ECF705230CEBC31357
:101AA000FB1AEA70E90874296870DF021C07C0E0BD
:101AB000C0D0E8C0E0E9C0E0EAC0E0EBC0E0ECC0C4
:101AC000E0EDC0E0C082C083C0F075AF00C2C17459
:101AD000FF2558F558701075E500C2B975E40090FF
:101AE0000131E0F912137CD0F0D083D0828009D08C
:101AF000F0D083D082D0E0FED0E0FDD0E0FCD0E09A
:101B0000FBD0E0FAD0E0F9D0E0F8D0D0D0E032C09D
:101B100082C083900139E0600914603424FB60388E
:101B2000806C90013BE0F56974016566706075A991
:101B30000075B900539AFEC2A875E101E5E170FC99
:101B400075E1F175D681C2B975E400121BC6803EFD
:101B500090013BE0F567803690013BE0900133F067
:101B600090013CE0900134F090013DE0900135F0AF
:101B700090013EE0900136F090013FE0900137F097
:101B8000900140E0900138F09001327401F0021CA5
:101B900007C082C083E567702A75A90075B9005334
:101BA0009AFEC2A875E101E5E170FC75E1F175D618
:101BB00081C2BA759400C2B975E400900132E4F0B4
:101BC000756602021C07C082C08375A90175B90140
:101BD00075E900759100759B0075BF00C289906121
:101BE000827405F0A3747FF0439A01D2A8756A014C
:101BF000747B2497901DD8F07402901DD7F0E5698E
:101C0000F912137C8001F0D083D0822274F8120282
:101C1000E0E56A6015756A00740B247B901DD8F0AE
:101C20007401901DD7F074018012756A01749724B5
:101C30007B901DD8F07402901DD7F0E475F08CA451
:101C4000F8A9F0747B28FE740139FFEEF8EFF975FE
:101C5000C311E5A288828983F0E5A3A3F0E5A488F7
:101C6000828983A3A3F0E5A588828983A3A3A3F037
:101C70008E828F83A3A3A3A3A3A3A3A3A3A3E0FA0A
:101C8000EE2AF8EF3400F9E8240EF582E93400F585
:101C900083E0FCE8240FF582E93400F583E0A2E755
:101CA000E433F8742565696006742765697012EC81
:101CB00094054008EA24FAC394204005E8A2E050C5
:101CC0002CEE240BFCEF3400FDEE2409FAEF340077
:101CD000FB121184EEFCEFFD8E828F83A3A3A3A3DE
:101CE000E02405FAE43400FB7900122366756B00EA
:101CF000022896C0E0C0D0E8C0E0E9C0E0EAC0E059
:101D0000EBC0E0ECC0E0EDC0E0EEC0E0C082C0831C
:101D1000C0F0E59154057003021E3A756B019061A5
:101D200095E0C0E0E56A75F08CA4F8A9F07480280D
:101D3000F582740139F583D0E0F0906196E0C0E05F
:101D4000E56A75F08CA4F8A9F0748128F582740115
:101D500039F583D0E0F0906197E0C0E0E56A75F076
:101D60008CA4F8A9F0748228F582740139F583D027
:101D7000E0F0906198E0C0E0E56A75F08CA4F8A905
:101D8000F0748328F582740139F583D0E0F0E5D949
:101D9000C0E0E56A75F08CA4F8A9F0748428F58297
:101DA000740139F583D0E0F0E5D9543FFE748528FD
:101DB000F582740139F583EEF08E82A8829060601E
:101DC000E0C0E0E56A75F08CA4FCADF0748928FAF7
:101DD00074013400FBEA2CF582EB3DF583D0E0F092
:101DE000E569C0E0E56A75F08CA4FCADF0748A2862
:101DF0000A74013400FBEA2CF582EB3DF583D0E058
:101E0000F0E591A2E2E05004C2E78002D2E7F0746C
:101E10000B2EC0E0E56A75F08CA4F8A9F0747F2859
:101E2000F582740139F583D0E0F074032E901DDA49
:101E3000F075D60175D70175910075E900759100AF
:101E4000759B00021AEFC0E0E5BF601875E101E57F
:101E5000E170FC75E1F175D681C2C075D1FE75E106
:101E60001875BF0075BF00C289D0E03275C3007518
:101E7000A20075A30075C30075A40075A50075A622
:101E80000075C30275A28875A31375C33075A400CD
:101E900075A54075A60053A1EF43A710C2C2D2BAE0
:101EA000759409756B0022C0E0C0D0E8C0E0E9C0BD
:101EB000E0EAC0E0EBC0E0ECC0E0EDC0E0EEC0E086
:101EC000C082C083C0F074FF1202AEE5A1A2E4504C
:101ED0003D75C330E5A4E5A5F8851082851183F032
:101EE000E5A6F975C330744025A5F5A574C06870E2
:101EF000057401298001E9FE8EA653A1EFE56B7000
:101F00000DAC82AD837A017B007901122366E5A1D5
:101F1000A2E5500612144753A1DF74011202C40255
:101F20001AEF74F71202E0903754E493F8740193B7
:101F3000F974FF68700374FF6960030220889002DF
:101F40009C74B3F0A37416F0900293E0701F75B602
:101F50000EE5B4A2E750FAE5BAF975B60EE5B4A2FB
:101F6000E750FAE5BAF5BCE9F5BC7401F043B404F6
:101F7000E5BCFAE0701F75B60EE5B4A2E750FAE5CD
:101F8000BAF975B60EE5B4A2E750FAE5BAF5BCE9C0
:101F9000F5BC7401F043B404E5BCC4540F75F00AF9
:101FA000120105A8F0EAC4540F75F00A120105E504
:101FB000F0C454F02890029EF0900293E0701F75D8
:101FC000B60EE5B4A2E750FAE5BAF975B60EE5B477
:101FD000A2E750FAE5BAF5BCE9F5BC7401F043B4E8
:101FE00004E5BCFAE0701F75B60EE5B4A2E750FA3E
:101FF000E5BAF975B60EE5B4A2E750FAE5BAF5BC54
:10200000E9F5BC7401F043B404E5BCC4540F75F0A9
:102010000A120105A8F0EAC4540F75F00A1201056E
:10202000E5F0C454F02890029FF07A06EAC33344E6
:1020300001906272F074D5906271F0740290029413
:10204000F0A3749CF0A37462F0A37473F0A3E05443
:10205000E0F0A37404F0900298E4F090029B7442C4
:10206000F090029A7412F07402F5D575D49475D676
:1020700001906270E0D2E1F0E5D6A2E040FA906211
:102080007274FFF0906271F002269575C68000E5CB
:102090009EA2E640F9121F229061F2E4F0A3F078CC
:1020A00086790388828983E4939061F0F08882893D
:1020B00083A3A882A983E864847003E9641170E3B0
:1020C000759C779061B17401F075E106E591A2E726
:1020D00050FA75917F7567FF756600906180744056
:1020E000F09061917448F090619A743FF0A3745A33
:1020F000F09061A0747FF09061BC7407F09061A6CD
:10210000740FF09061B67416F012233612269A7589
:1021100074FF1229C7757600757700757800757998
:1021200017757A0090620B7417F09062077401F0D3
:10213000906209E4F0758B00C2E843AC20439A0238
:1021400053F3FEC28043FD01D29043FE01D2AF8023
:102150002C7A0A7B00122772E575FEE5746E601D0D
:10216000E57424FC6003147003121B91EE24FC60E0
:10217000031470067567FF756600857574E5742431
:10218000FC60031470CB7401656670CC1225CC80A2
:10219000C7C082C0839002C6E02440601F24FE6056
:1021A0002024FC703A9002C07474F0A3E4F0A304FD
:1021B000F0A3F0A3E4F09002B30480281222D080B0
:1021C000249002B3E0701E7401F09002C074A0F07D
:1021D000A37402F0A3E4F0A3740AF0A3E4800590D2
:1021E00002B37404F0021C07C082C0839002C6E0F0
:1021F000243F700302228A24FE70030222AA147074
:10220000030222BD14607924FC70030222BD24FA6B
:1022100070030222BD14600914601C14601F0222A6
:10222000B7E56760030222BD122336121E6C121B33
:10223000C67566010222BD121B910222BD9002B337
:10224000E0F870329002C9E0900139F09002CBE0E2
:10225000F890013AF09002C0743BF0A37401F0A32F
:10226000E4F09002CCE0F99002C3E8F0A3E9F0902A
:1022700002B3740280467402687042121B0F803DE4
:102280009002C9E0540FF57580339002B3E0702DD1
:102290007402F09002C3740AF0A3E4F09002C074D8
:1022A000A0F0A37402F0A3E480129002C3E4F0A3B0
:1022B000F09002B30480059002B37404F0021C078E
:1022C00080028000C082C0839002B37404021C06A6
:1022D000C082C08379C57A027B009002C0E9F0A376
:1022E000EAF0A3E4F0A37408F0A3E4F09002B304CE
:1022F000F09002DFE0120156A3E0097A02120156C3
:102300009002DBE0097A02120156A3E0097A021278
:1023100001569002DDE0097A02120156A3E0097A23
:1023200002120156097A027401120156097A02E476
:10233000120156021C07C082C083786C76000874B4
:10234000746870F8E5A8F8C2AF90620EE0F9740303
:10235000F09062117408F0E990620EF0E8A2E7A232
:10236000E792AF021C0774F31202E074FF1202AE90
:10237000A2AFE433851082851183F0C2AF7870E696
:102380002AFE08E63BFFEE2403FEEF3400FFC3EE17
:1023900094F1EF941A4003022506786CE624E1F5E7
:1023A0008208E63402F583E9F018E62401F608E62F
:1023B0003400F674F4656C7004741A656D700675FB
:1023C0006C00756D00080808E62401F608E6340084
:1023D000F6786CE624E1F58208E63402F583EAF04B
:1023E00018E62401F608E63400F674F4656C70040F
:1023F000741A656D7006756C00756D00080808E646
:102400002401F608E63400F6786CE624E1F582084B
:10241000E63402F583EBF018E62401F608E6340012
:10242000F674F4656C7004741A656D7006756C0052
:10243000756D00080808E62401F608E63400F67811
:102440006C74F4C396FE741A0896FFC3EA9EEB9F61
:1024500050068A0A8B0B80048E0A8F0BEAC3950AFA
:10246000FEEB950BFF18E624E1F50808E63402F5CB
:1024700009ED901DE5F0ECA3F085090DE50DA3F045
:10248000E508A3F0850B09E509541FF8A3E054E023
:1024900048F8F0E50AA3F075D60475D704E5D6A28E
:1024A000E240FAEE4F6035EC250AFCED350B901D4D
:1024B000E5F0ECA3F07402A3F0A374E1F0EF541F75
:1024C000FC74E0584CA3F0EEA3F075D60475D70465
:1024D000E5D6A2E240FA8E6C8F6D801B786CE62AFE
:1024E000F608E63BF674F4656C7004741A656D705A
:1024F00006756C00756D007870E62AF608E63BF606
:102500007572000225B6E57260030225B6786CE6A6
:1025100024E1F58208E63402F5837403F018E6241A
:1025200001F608E63400F674F4656C7004741A65FC
:102530006D7006756C00756D00080808E62401F6DC
:1025400008E63400F6786CE624E1F58208E6340209
:10255000F583E4F018E62401F608E63400F674F496
:10256000656C7004741A656D7006756C00756D008D
:10257000080808E62401F608E63400F6786CE6243C
:10258000E1F58208E63402F583E4F018E62401F66A
:1025900008E63400F674F4656C7004741A656D70A6
:1025A00006756C00756D00080808E62401F608E65B
:1025B0003400F6757201851082851183E0E0A2E097
:1025C00092AF74011202C47F0602034674F712022E
:1025D000E0A2AFE433FCC2AF90620EE0FD7403F002
:1025E000906211E0A2E0500302268BA870A971E866
:1025F000497003022681C3E89440E9940040077EB5
:10260000407573018005E8FE757300A86EA96F8E92
:102610000874F4C398FA741A99FBC3E5089AE49B0A
:102620004007E8FA74F4C39AFE74E128F87402399A
:10263000901DDDF0E8A3F0901DE1E054E0F0EEA382
:10264000F075D60275D702E5D6A2E140FA90621184
:102650007401F08E82AA827870C3E69AF608E69436
:1026600000F6181818E62AF608E93400F674F4653E
:102670006E7004741A656F7012756E00756F00804D
:102680000AE57360067573007401F0ED90620EF058
:10269000ECA2E092AF7F02020346C082C083741DA9
:1026A000F5D57AD58AD4741DF5D3740824D5F5D21E
:1026B000901DD57470F0A374D9F0A3E4F0A3F0904A
:1026C0001DDCE0540CF0441AF0901DDBE0C2E7F092
:1026D000901DD9E054E0F0A3E4F0901DD9F0901DD6
:1026E000DCE0C2E2F0901DDB7420F0901DE9E054C4
:1026F0001FF0901DEC7452F0901DEB7420F0901DB3
:10270000DF7462F0A37426F0A3E4F0901DE474403B
:10271000F0901DE37420F0D2B8021C07C0E0C0D0D6
:10272000E8C0E0E9C0E0EAC0E0EBC0E0ECC0E0ED0A
:10273000C0E0C0F0C2C0E5D1A2E05006121C0C758A
:10274000D1FED0F0021AF8EBC313FBEA13FAEAF851
:10275000EBF9E824FFFAE934FFFBE84960130000D5
:1027600000000000000000000000000000000080E9
:10277000DD2274F81202E0EAFEEBFFEEF8EFF9E872
:1027800024FFFEE934FFFFE84960097AE87B031281
:10279000274780E77F01020346C0E0C0D0E8C0E0E1
:1027A000E9C0E0EAC0E0EBC0E0ECC0E0EDC0E0C0B2
:1027B00008C009C082C083C0F0E59EA2E640FA903E
:1027C0006206E0FAA2E25035A879E890620BF0F5D3
:1027D00008857A097404780812028CE5089062076B
:1027E000F0857908857A097409780812028CE50861
:1027F000543E906209F0906201E0D2E0F07876EA0F
:1028000046F608E446F6906202E0F50875090074A1
:1028100004780812029B7876E50846F608E5094632
:10282000F6906204E0F50875090074097808120250
:102830009B787646F608E50946F6EAA2E05003756D
:10284000780174065A6003757800E58BA2E550069E
:10285000758BDF757800A876A977E85404600E7848
:1028600076E654FBF608E654FFF6122A84A876A909
:1028700077E85410600E7876E654EFF608E654FFD9
:10288000F6122AE8758B00C2E8D0F0D083D082D04F
:1028900009D008021AF87F0102034674F51202E01B
:1028A000E9FFEAFE8B087B009002CFE0F8A3E0F995
:1028B0009002AAE8F0A3E9F09002D1E0FCA3E0FDC9
:1028C00080089002AAE8F0A3E9F09002AAE0F8A339
:1028D000E0F9EC687002ED69604AE0F5838882E413
:1028E00093F89002AAE028F8A3E03400F99002AA35
:1028F000E0FAA3E0F5838A82A3E493640270C390B4
:1029000002ABE0F50B9002AAE8F0A3E9F0EA450B70
:102910006012EF60158A82850B83A3A3A3A3A3E4AF
:10292000936F70A67A007B00802FEB60F71B809A74
:1029300074026870030229C29002AAE0F8A3E0F5CD
:10294000838882E493F89002AAE028F8A3E0340098
:10295000F99002AAE8F0A3E9F09002AAE0F8A3E057
:10296000F9EC687002ED696059E0F5838882A3E4B0
:1029700093F874046870B99002AAE0FAA3E0FB909F
:1029800002AAE0F8A3E0F5838882E493F89002AA13
:10299000E028F8A3E03400F99002AAE8F0A3E9F0F7
:1029A000EA4B601E8A828B83A3A3E4936E600302CA
:1029B00029248A828B83A3A3A3E49365086003027E
:1029C00029247F0402034674F81202E09002CFE04B
:1029D000F8A3E0F99002AAE8F0A3E9F09002D1E0B0
:1029E000F8A3E0F9E8FAE9FB7C007D008005E8F057
:1029F000A3E9F09002AAE0F8A3E0F9EA687002EB1C
:102A0000696048E0F5838882E493F89002AAE028A0
:102A1000F8A3E03400F99002AAE0FEA3E0F5838E6B
:102A200082A3E49364029002AA70C3E0FCA3E0FDD9
:102A30009002AAE8F0A3E9F0EC4D600F8C828D8340
:102A4000A3A3A3A3A3E4936401709D8C828D83A3AD
:102A5000A3A3A3A3A3A3E493A2E65004D2F080020D
:102A6000C2F0A2F0E4339002BFF09002BEE4F09016
:102A7000620F7403F0E0A2E750FB90620BE0D2E13A
:102A8000F0022896C082C0839002AC7402F0A3E4E6
:102A9000F09002B3F078AC790288828983A3A3A373
:102AA000A3A3A3A3A37403F088828983A3A882A904
:102AB00083E864B17003E9640270DE78AC7902E8FF
:102AC000240DF582E93400F5837403F0888289834C
:102AD000A3A882A983E864B17003E9640270E07579
:102AE0007B00757C00021C0774F61202E090620EF7
:102AF000E0F50AE4F0906211E0FE9002B3E06408B1
:102B00007026EEA2E0401C9002C7E0F8906200F050
:102B10009002ACE0C39404500AE86004740380029D
:102B20007402F09002B3E4F0EEA2E2500990621158
:102B3000E4F09002B3F0EEA2E450239062117480AE
:102B4000F09002B37407F0E57B457C6009857B82D9
:102B5000857C831202DE9002B3E4F0022BF6E0F8EB
:102B6000740268707AEEA2E04003022E1C90621696
:102B7000E0F8FF9002C0E0F9A3E0FAA3E0FBEF6009
:102B800013906220E0120156E9240109EA3400FAA8
:102B90001FEF70ED88089002C3C3E09508F0A3E032
:102BA0009400F09002C0E0F9A3E0FAA3E0FBE9256D
:102BB00008F9EA3400FA9002C0E9F0A3EAF0A3EBC6
:102BC000F0A3E0F8A3E0F9E84990621160047440D2
:102BD00080027448F0E8496003022E1C022DF8744C
:102BE00006687009857B82857C831202DE9002B3C1
:102BF000E06003022C9CEEA2E04003022E1C79C58B
:102C00007A027B007808906220E0120156E92401E4
:102C100009EA3400FA18E870ED8B7B8B7C9002C5D2
:102C2000E054E0602624E07003022D7924E0700374
:102C3000022D6124C07003022D0724E07003022DD1
:102C40008224E07003022D6D022CF5A3E0147003C2
:102C5000022CED24FE607A24FE601124FC70030235
:102C60002CFD24FE7003022D02022CF59002C9E017
:102C7000F8A3E0F9E849707DA3E0F8A3E0F9E8499A
:102C800070739002C7E05480F8A3E0F9E8497065DA
:102C90009002B37408F09062117448F09002B3E0AF
:102CA000F87401686003022E0E906211E0A2E150F8
:102CB00003022E1C78029002C3E0FAA3E0FBC3EAF1
:102CC0009420EB94004003022DA0EAFC780A022D28
:102CD000A27901122F1BE9601C9002B3E0F8740482
:102CE000686003022D8B906211746080AE790012CF
:102CF0002F1BE970E49002B37404F080E91234C72A
:102D000080D71236EB80D2A3E0600E24FA600F2445
:102D1000FE601024FE604480DC122E2A80BB122F3D
:102D2000E680B6A3E0F8A3E0F9E84970C8A3E0F8AC
:102D3000A3E0F9E84970BEA3E064017002A3E0706B
:102D4000B49002C074ADF0A37402F0A3E4F0A30445
:102D5000F0A3E4F09002B304F0803D12368F022C11
:102D6000D9757BE8757C211221E8022CD9757B91FD
:102D7000757C21122191022CD9757BC2757C2202AF
:102D80002CF5757BC0757C22022CF57401686008F7
:102D90007402686003022C969062117440022C9BAE
:102DA0007C20ECFE9002C0E0F9A3E0FAA3E0FBEE89
:102DB000601312013C906220F0E9240109EA34001A
:102DC000FA1EEE70ED8C089002C0E0F9A3E0FAE97B
:102DD0002508F9EA3400FA9002C0E9F0A3EAF0A36A
:102DE000EBF0A3C3E09508F0A3E09400F0E8906254
:102DF00011F0ECC394205024E57B457C6009857B71
:102E000082857C831202DE9002B3E4F0800E7405AA
:102E1000687009857B82857C831202DEE50A9062F8
:102E20000E022E24F07F0302034674F71202E09094
:102E300002C7E0F8A3E0F9E8496003022F14A3E019
:102E4000F8A3E06003022F14A3E064027002A3E081
:102E50006003022F149002C5E024806009146054BE
:102E6000146061022F14E86003022F149002BFE087
:102E700060047801800278009002CDE8F0A3E4F0CD
:102E80009002BEE0600A9002CDE04402F0A3E4F0BC
:102E90009002B3E0640460199002C074CDF0A37492
:102EA00002F0A3E4F0A37402F0A3E4F09002B304F0
:102EB000F00226959002ACE0640470589002CDE4D4
:102EC000F0A380CBE8547FF5089002ACE064047076
:102ED00043E508C39406503C74AC2508F58274029F
:102EE0003400F583E854806018A3A3A3A3A3A3A38D
:102EF000E0640370047801800278009002CDE880DD
:102F00008BE582240CF582E5833400F583E06403CD
:102F100070E780E19002B37404809574F71202E0C8
:102F2000E9FA9002CBE0F8A3E0F9E8496003022F48
:102F3000DB9002ACE06404600F9002C9E0F8A3E00B
:102F4000F9E8496003022FDB9002C5E0541F6009D5
:102F5000146022146011022FDB9002C7E06401703C
:102F600014EA9002BE80799002C9E0547FF508907F
:102F700002C7E060047900806AE508C39406505BEC
:102F8000E50890620EF09002C9E054806021EA608A
:102F900004741080027440906211F0EA60047403BB
:102FA0008001E4C0E074B32508F5827402801FEA52
:102FB0006004742080027480906214F0EA600474EB
:102FC000038001E4C0E074B82508F582740234007F
:102FD000F583D0E0F090620EE480059002B37404B3
:102FE000F0790102269574F61202E09002C7E0F82B
:102FF000A3E014600C1460781470030231260231CF
:10300000C19002CFE0F8A3E0F99002AAE8F0A3E9AA
:10301000F07508007509009002D1E0FAA3E0FB808A
:1030200005E8F0A3E9F09002AAE0F8A3E0F9EA6865
:103030007002EB696037E0F5838882E493F89002D0
:10304000AAE028F8A3E03400F99002AAE0FCA3E08B
:10305000F5838C82A3E49364019002AA70C3E0F527
:1030600008A3E0F5099002AAE8F0A3E9F002319D77
:10307000E8FC9002CFE0F8A3E0F99002AAE8F0A300
:10308000E9F09002D1E0FAA3E0FB80011C75080092
:103090007509008005E8F0A3E9F09002AAE0F8A322
:1030A000E0F9EA687002EB69603FE0F5838882E44A
:1030B00093F89002AAE028F8A3E03400F99002AA5D
:1030C000E0FDA3E0F5838D82A3E49364029002AA5D
:1030D00070C3E0F508A3E0F5099002AAE8F0A3E9BF
:1030E000F0ED45096003EC70A39002C0E508F0A381
:1030F000E509F0A37480F09002C0E0F9A3E0FA7B48
:1031000080E92402F9EA3400FA12013CFC1919E0C2
:10311000FAA3E92403F9EA3400FA12013CF9ECA31A
:10312000F0A3E90231BDE8FD9002CFE0F8A3E0F999
:103130009002AAE8F0A3E9F09002D1E0FAA3E0FB44
:103140007508007509008005E8F0A3E9F09002AA6F
:10315000E0F8A3E0F9EA687002EB696037E0F58314
:103160008882E493F89002AAE028F8A3E03400F9FA
:103170009002AAE0FCA3E0F5838C82A3E4936403AD
:103180009002AA70C3E0F508A3E0F5099002AAE84E
:10319000F0A3E9F0EDFC74FF2C1D0470A39002C0B5
:1031A000E508F0A3E509F0A37480F09002C0E0F90F
:1031B000A3E0FAA37B8012013CA3F0A3E4F0023267
:1031C0008B9002C0E4F0A3F0A3F09002D3E0F8A348
:1031D000E0F9A3E0FAA3E0FBEAC398F508EB99F560
:1031E00009E50854F8AB094B700302329AE8FAE992
:1031F000FB7403780812028CA808A9099002C7E0A2
:10320000F508A3E0F5098A828B83E493AE096E701A
:1032100063A3E4936508705C9002C9E0F508A3E03D
:10322000F5098A828B83A3A3E493AE096E70458A65
:10323000828B83A3A3A3E493650870388A828B836F
:10324000A3A3A3A3E493F508740193F5099002C026
:10325000E508F0A3E509F0A37480F08A828B83A3CC
:10326000A3A3A3A3A3E493FE740193FF9002C3EE70
:10327000F0A3EFF0EA2408FAEB3400FBE824FF188F
:10328000E934FFF9E84960030231FC9002C0E0F93B
:10329000A3E0FA8A09E9450970079002B374048033
:1032A0002C9002B3E0640460259002CBE0FAA3E026
:1032B000FB9002C3E0F8A3E0F9C3EA98EB99500849
:1032C0009002C3EAF0A3EBF09002B37401F0022E77
:1032D0002574F11202E0EA2404F50EEB3400F50F38
:1032E000850E82F583E493FC60369002D7E0FEA35E
:1032F000E0FF8E828F83E493F8740193F9EA68709B
:1033000002EB69601BEE2404FEEF3400FF8E828F17
:1033100083E493F8740193F9EA687002EB6970E54D
:103320007900EC70030234C48005EAF0A3EBF0905E
:1033300002AAE0FAA3E0FB9002D1E06A7003A3E0E6
:103340006B70030234B29002AAE0F8A3E0F5838820
:1033500082E493FA9002AAE02AFAA3E03400FBE0A8
:10336000F5838882A3E49364059002AA70BCE0FC14
:10337000A3E0FD9002AAEAF0A3EBF0EC4D7003028B
:1033800034B2EC2402F50CED3400F50D850C82F519
:1033900083E493540FF50A90620EF0750B008C8253
:1033A0008D83A3A3A3A3E4932407F508A3E4933494
:1033B00000F5097403780812028CAA08850C82852E
:1033C0000D8393A2E750719062117448F0906211DE
:1033D000E0A2E3500890620EE0650A60F09062118E
:1033E0007408F0906211E0A2E3500890620EE0656C
:1033F0000A60F08C828D83A3A3A3E4935403640139
:103400007003750B40750801750900E50A7808120C
:10341000029B8E828F83A3A39355086006E50BD28F
:10342000E0F50BE50B906212F0EA906210F074B3D5
:10343000250AF582740280709062147490F0906294
:1034400014E0A2E3500890620EE0650A60F090621A
:10345000147410F0906214E0A2E3500890620EE041
:10346000650A60F08C828D83A3A3A3E49354036464
:10347000017003750B40750801750900E50A7808AD
:1034800012029B8E828F83A3A3A39355086006E547
:103490000BD2E0F50BE50B906215F0EA906213F0A9
:1034A00074B8250AF58274023400F583E4F0906262
:1034B0000EF009850E82850F83E493F8E9C39850D6
:1034C0000302332F021A5274F51202E09002ACE0AC
:1034D000640270030236309002C9E0F8A3E0F9E814
:1034E000496003023630A3E0F8A3E0F9E84960033D
:1034F0000236309002C7E0F8A3E06003023630E8FD
:103500007003023638F5089002CFE0FAA3E0FB9092
:1035100002AAEAF0A3EBF09002D1E0FEA3E0FF8064
:10352000089002AAEAF0A3EBF09002AAE0FAA3E066
:10353000FBEE6A7002EF6B7003023630E0F5838AAF
:1035400082E493FA9002AAE02AFAA3E03400FB9006
:1035500002AAE0FCA3E0F5838C82A3E493640270EA
:10356000C09002ABE0FD9002AAEAF0A3EBF0EC4DB4
:1035700070030236308C828D83A3A3A3A3A3E493AC
:10358000650870A59002AC7404F0E8A3F07508001B
:10359000EC2404FEED3400FF8E828F83E4937003ED
:1035A00002368C85080A74AE250AF582740234004E
:1035B000F583E4F09002D1E0F50AA3E0F50B7A0080
:1035C0007B008005E8F0A3E9F09002AAE0F8A3E010
:1035D000F9E50A687003E50B696035E0F5838882D8
:1035E000E493F89002AAE028F8A3E03400F99002EE
:1035F000AAE0FCA3E0F5838C82A3E4936404900228
:10360000AA70C1E0FAA3E0FB9002AAE8F0A3E9F0F7
:103610008A828B83A3A3A3E49370A31232D10508FB
:103620008E828F83E493F8E508C398505F0235A338
:103630009002B37404F080549002ADF09002AC7428
:1036400003F078AC790288828983A3A3A3A3A3A300
:10365000A3A37403F088828983A3A882A983E86462
:10366000B17003E9640270DE78AC7902E8240DF5EC
:1036700082E93400F5837403F088828983A3A882E9
:10368000A983E864B17003E9640270E00229C2749E
:10369000F61202E09002ACE0640470209002C5E0F3
:1036A000648170189002C7E0F8A3E0F9E849700C53
:1036B0009002CBE064017002A3E060079002B37453
:1036C0000480259002C9E024AEF508A3E03402F599
:1036D000099002C0E508F0A3E509F0A3E4F0A30413
:1036E000F0A3E4F09002B304022E2474F51202E079
:1036F0009002ACE0640470459002C5E06401703D46
:103700009002CBE0F8A3E0F9E84970319002C9E0FB
:10371000F508A3E0F5099002C7E0FEFBAA089002B5
:10372000ADE0F912289BEA4B601374AE2508F582D0
:1037300074023509F583EEF01232D180069002B39F
:103740007404F00229C20000AAAA120100020000BB
:1037500000205104B31623350102000109021900AB
:1037600001010080320904000001FFFFFF0007058E
:103770008302400005040309042403540065007813
:103780000061007300200049006E00730074007235
:103790000075006D0065006E007400730024034323
:1037A0000043003200350034003000200055005343
:1037B000004200200044006F006E0067006C00654E
:1037C0000012033000300030003000300030003094
:1037D0000037000C0343004500420041004C0065E7
:1037E000370800FFFFFFFFFFFFFFFFFFFFFFFFFFA7
:1037F000FFFFFFFFFFFFFFFFFFFFFFFFFFFFFFFFD9
:10380000FFFFFFFFFFFFFFFFFFFFFFFFFFFFFFFFC8
:10381000FFFFFFFFFFFFFFFFFFFFFFFFFFFFFFFFB8
:10382000FFFFFFFFFFFFFFFFFFFFFFFFFFFFFFFFA8
:020000040003F7
:00000001FF
